:03020000020206F1
:03025F0002020395
:03020300021C15C5
:0400000002020032C6
:01000B0032C2
:0100130032BA
:01001B0032B2
:0100230032AA
:01002B0032A2
:01003300329A
:01003B003292
:01004300328A
:01004B003282
:01005300327A
:01005B003272
:01006300326A
:0101000032CC
:0101040032C8
:0101080032C4
:01010C0032C0
:0101100032BC
:0101140032B8
:0101180032B4
:0101200032AC
:0101240032A8
:0101280032A4
:01012C0032A0
:01013000329C
:010134003298
:010138003294
:01013C003290
:01014000328C
:010148003284
:01014C003280
:01015000327C
:010154003278
:010158003274
:01015C003270
:01016000326C
:01017000325C
:010174003258
:010178003254
:01017C003250
:01018000324C
:010184003248
:010188003244
:01018C003240
:01019000323C
:010194003238
:010198003234
:01019C003230
:0101A000322C
:0101A8003224
:0101AC003220
:0101B000321C
:0101B4003218
:0101B8003214
:2002620022AE82AF837C007D00C3EC9EED9F501B7AB07B04EA24FFF8EB34FFF988028903E0
:20028200E84970F00CBC00E10D80DE22AE82AF837C007D00C3EC9EED9F501B7A0A7B00EA0D
:2002A20024FFF8EB34FFF988028903E84970F00CBC00E10D80DE2275AF0790E67BE090E6BB
:2002C2007CF0DAF3222290E6A3E0FF74FE5FF090E6A5E0FF74FE5FF090E6047480F00000CD
:2002E200000090E61AE4F00000000090E6047406F00000000090E6497486F000000000907B
:20030200E6497486F00000000090E6497486F00000000090E6497486F00000000090E61AE0
:200322007411F00000000090E604E4F00000000090E6047480F00000000090E618E4F00038
:2003420000000090E6047402F00000000090E6187409F00000000090E604E4F00000000072
:200362002275B283C280C281C28790E60B7403F00000000090E60174E3F000000000120227
:20038200C890E670E4F00000000090E609E4F00000000090E6207402F00000000090E621F3
:2003A200E4F00000000090E60274C8F00000000090E603740AF00000000090E6307440F092
:2003C2000000000090E631E4F00000000022AF8275B4FFC287C2808FA0D280C28022AF8284
:2003E20075B400D287C2818F068F047D00AA167B00EA2CFCEB3DFD8E027B00C3EA9CEB647C
:20040200808DF063F08095F05014EE2440F582E434E7F583E5A0F0D281C2810E80CBC28734
:200422002290E68AE4F0903A1AE090E68BF0227582881203D0C2817F0074022F24B8F582CF
:20044200E434E6F583E0F5A0D281C2810FBF040040E77516047582001203E075828A12030F
:20046200D07516017582041203E090E745E4F07582A11203D07516027582060203E0AF8281
:20048200903A0EE0FEB50701227E00758284C007C0061203D0D006D00775B400D287C281E8
:2004A200D281C281E5A0E5A0700F8E050EBDFF028007000000000080D2758281C00712038F
:2004C200D0D0078F82120D4A7582800203D0AF82903A0EE0FEB5070280058F821204807567
:2004E20082841203D07516067582001203E07582851203D07516027582061203E002042389
:20050200AF82903A00E0FE24FC4025EE2E900513738006800A800E8012EF24FF92A222EFBD
:2005220024FF92A322EF24FF92A422EF24FF92A522AF82758200C0071203D0758201120587
:2005420002D007D2A1D2A0C2A0C2A1D2A0C2A07E00EF13920092A1D2A0C2A0EFC313FF0E57
:20056200BE080040EC758200120502D2A0C2A0D2A0C2A0758201120502D2A1D2A0C2A0D2A5
:20058200A0C2A07F00E50813920092A1D2A0C2A0E508C313F5080FBF080040E97582001277
:2005A2000502D2A0C2A0758201120502C2A1D2A0C2A07582001205027F32D2A0C2A0DFFAA8
:2005C200D280C280227F00BFFF00500D90E678E0FE13920140030F80EE90E678E0FF20E2C8
:2005E20004EF20E10D90E678E0FF74404FF075820122758200227F00BFFF00500D90E6787D
:20060200E0FE13920240030F80EE90E678E0FF30E20D90E678E0FF74404FF0758201227558
:200622008200227F0090E678E0FE20E204758200220FBFFF0040EE758201227F0090E67828
:20064200E0FE20E604758200220FBFFF0040EE75820122AF82C3E49509E433FE90E678E029
:20066200FD74804DF0C007C006120625D006D00790E679EFF0C007C0061205C7E582D0065D
:20068200D0077014E50A600C90E678E0FD74404DF012063D75820022EE601090000AC007B9
:2006A200C00612028ED006D00780B1E50A600990E678E0FF74404FF075820122AE82AF835E
:2006C2007D00E50D7003F58222750964750A007582A2C007C006C005120655E582D005D0D8
:2006E20006D00760030207CDAC0C90E679ECF0C007C006C0051205C7E582D005D006D00746
:2007020060030207CD90E679E50BF0C007C006C0051205C7E582D005D006D007600302074A
:20072200CD90E678E0FC74404CF0C007C006C00512063D90E678E0FC74804CF012062590C2
:20074200E67974A3F01205C7E582D005D006D007707990E679E08E828F83F0C007C006C053
:20076200051205F8E582D005D006D007705DFCC3EC950D502A90E679E08E828F83F0A3AEB4
:2007820082AF83C007C006C005C0041205F8E582D004D005D006D00770310C8C0580D090A3
:2007A200E678E0FF74204FF090E679E0C0051205F8E582D005701490E678E0FF74404FF004
:2007C20090E679E0C00512063DD0058D8222AE82AF837D00E5107003F58222750964750AE7
:2007E200007582A2C007C006C005120655E582D005D006D0076003020892AC0F90E679EC21
:20080200F0C007C006C0051205C7E582D005D006D007600302089290E679E50EF0C007C075
:2008220006C0051205C7E582D005D006D0077060FCC3EC951050498E828F83E090E679F08A
:200842008E828F83E0FBA3AE82AF83903A05E02BF0903A03E0FAA3E0FB903A0374012AF049
:20086200E43BA3F0C007C006C005C0041205C7E582D004D005D006D00770150C8C0580B1C0
:2008820090E678E0FF74404FF0C00512063DD0058D8222903A1AE0FF903A01E0F50BA3E085
:2008A200F50C8F0D90E740C0071206BEAE82D0077D00903A01E0FBA3E0FC903A01EF2BF0C7
:2008C200ED3CA3F08E8222AF82903A01E0F50EA3E0F50F8F1090E740C0071207D0D0077E67
:2008E20000903A01E0FCA3E0FD903A01EF2CF0EE3DA3F022AE82AF837D00E5127003F58259
:2009020022750964750A007582A6C007C006C005120655E582D005D006D00760030209E8B7
:2009220090E679E511F0C007C006C0051205C7E582D005D006D00760030209E890E678E0A3
:20094200FC74404CF0C007C006C00512063D90E678E0FC74804CF012062590E67974A7F0D1
:200962001205C7E582D005D006D007707990E679E08E828F83F0C007C006C0051205F8E59E
:2009820082D005D006D007705DFCC3EC9512502A90E679E08E828F83F0A3AE82AF83C0070B
:2009A200C006C005C0041205F8E582D004D005D006D00770310C8C0580D090E678E0FF744B
:2009C200204FF090E679E0C0051205F8E582D005701490E678E0FF74404FF090E679E0C004
:2009E2000512063DD0058D8222AE82AF837D00E5147003F58222750964750A007582A6C0F3
:200A020007C006C005120655E582D005D006D0076003020ADE90E679E513F0C007C006C07B
:200A2200051205C7E582D005D006D0076003020ADEAC137B00C3EB95144003020ACE8E82DD
:200A42008F83E0FAA3AE82AF8390E679EAF0C007C006C005C004C0031205C7E582D003D019
:200A620004D005D006D00770730C8C130B8B05EC20E3C2C3EB951450BC90E678E0FA744035
:200A82004AF0C007C006C005C004C00312063D750964750A007582A6120655E582D003D077
:200AA20004D005D006D007703390E679ECF0C007C006C005C004C0031205C7E582D003D07F
:200AC20004D005D006D0077013020A3790E678E0FF74404FF0C00512063DD005903A06E564
:200AE20013F08D8222903A1AE0FF903A06E0F5118F1290E740C0071208F6AE82D007903A47
:200B020006E02FF08E822275B11F75B6FF903A0FE4F0903A0EF0903A107410F0903A11F09F
:200B2200903A12C4F02290E6017480F00000000090E670E4F090E671F0D2A243B40453B2A1
:200B4200BF53B4FDC2A343B40843B2AEC28543808E903A12E0F4FF53070F903A11E04FF51A
:200B6200B175B6FF900001120263C287C281903A11E0FF740F4FF5B153B4FB7E007F0020B3
:200B8200A210C3EE94FFEF94FF50070EBE00F00F80ED30A2047FC880027F64903A0DEFF014
:200BA200903A09E4F0A3F0A3F0A3F0903A08F022020B28020363903A0DE02416F07F00D220
:200BC20081C2810FBFFF0040F6D287D284C284D284C284D284C284D284C28453B27153B406
:200BE200F775B6F0903A12E0FF55B1FEB50703120BB5903A10E0FF740F4FF5B175B6FF2214
:200C020085B31575B3FF903A1AE0FE903A09E0FAA3E0FBA3E0FCA3E0FD8E0079007E007F6E
:200C220000903A09E82AF0E93BA3F0EE3CA3F0EF3DA3F090E68BE06022FA759B40759AE707
:200C420075AF07903A08E0F990E67BE0F590D28129F9C281DAF5903A08E9F08515B390E671
:200C62008BE0FFBF40005003020BB82290E60174C2F090E6F3E4F090E6C3F090E6C1F09015
:200C8200E6C27420F090E6C0744EF090E6F4E4F0759B1B7E1B7F3A8F068E9A759E607E6075
:200CA2007FE48F068E9DC0027A201202B9D00290E6C6E4F090E6C77410F090E6C8E4F090B1
:200CC200E6C9F090E6CAF090E6CBF090E6CCF090E6CDF090E60B04F00000000090E604744A
:200CE20080F00000000090E6047406F00000000090E604E4F00000000090E61AE4F00000EC
:200D0200000090E61A7410F00000000090E6E27401F00000000090E6CE7401F00000000067
:200D220090E6CFE4F00000000090E6D0E4F00000000090E6D1E4F00000000090E6E474FF96
:200D4200F000000000C28322AF82903A0EE0FE903A0FF0903A0E74035FF08FF005F07410F4
:190D6200800225E0D5F0FBFF903A10F0903A11EFF0740FF5B14FF5B1226E
:20006C0028015A5445580A0F00000001E300000000000000000000000000000000003030A3
:08008C003030303030303030EC
:200D7B002290E678E0FF74804FF012062590E6797490F01205C7E58260012290E6797444A7
:200D9B00F01205C7E58260012290E6797414F090E678E0FF74404FF012063DE5826001221A
:200DBB00900079E04401F02290E683E4F07420F003F07430F07401F07421F07411F07431FC
:200DDB00F07412F07432F07406F07426F022AF82E51724E0500375171F90E6BFE070109092
:200DFB00E6BEE0FEC39517500690E6BEE0F51775AF078F9B85169A7E407FE7EE04F59E7EC0
:200E1B00407FE70EBE00010F8F9D90E67C7403F07F00C3EF9517500E90E67BE0FE90E67CB4
:200E3B00F0E4F00F80ECE5170425E0FF90E740F090E7417403F090E68AE4F090E68BEFF0DA
:200E5B0022903A18E0FEA3E0FFC374409EE49F50067C407D0080048E048F05903A1AECF082
:200E7B007D00903A18EEC39CF0EF9DA3F022903A5BE0FFBF3103020F78BF320122BF3403F0
:200E9B00020F7BBF3503020F90BF3903020F4BBF3C03020F6FBF5103020FACBF8002804469
:200EBB00BF82028017BF8602804BBF8B028020BF8E028052BF93028056020FD17582821287
:200EDB0003D0C28190E6BAE0F5A0D281C281227582811203D075828B1203D01202C87582ED
:200EFB00800203D090E6BAE060047F8080027F818F820203D090E6BAE060047F8680027F2D
:200F1B00878F820203D090E6BAE0F58202048090E6BAE0F58212048090E6BBE0903A00F054
:200F3B0090E6BCE0FF90E6BDE0F5088F82020533903A05E4F0903A03F0A3F090E6BBE0FE28
:200F5B007F0090E6BAE0FD7C00903A01ED4FF0EC4EA3F02290E6BAE0903A06F022020BB2D7
:200F7B00120BB290E6A5E0FF74FE5FF090E6F574FFF0020C6ED28390E6F574FFF00000005F
:200F9B000090E601E0FF74F05FF000000000020BB890E6BCE0FFBF0108903A1174F0F080E0
:200FBB000990E6BAE0F582120D4A903A11E0C4540F903A12F02290E6A0E0FF74014FF02282
:200FDB00C021C0E0C0F0C082C083C007C006C005C004C003C002C001C000C0D075D00090BF
:200FFB00E6B9E0FF903A5BF090E6B57401F090E6B9E0FF24F350030213ACEFF5F0240B83F4
:20101B00F582E5F0241183F583E47340F4AC74ACAC0F41435358686D101013111313121394
:20103B00131313131390E6B8E0FFBF8002800DBF8102801EBF8202802F0213AC90E740E42D
:20105B00F090E741F090E68AF090E68B7402F00213AC90E740E4F090E741F090E68AF09012
:20107B00E68B7402F00213AC90E6BCE0FF600FBF01028019BF80028005BF812F801E90E699
:20109B00A0E0FF53070190E740EFF0803A90E6A1E0FF53070190E740EFF0802B90E6A2E081
:2010BB00FF53070190E740EFF0801C90E6BCE0C31314540324A3F582E434E6F583E0FF5350
:2010DB00070190E740EFF090E741E4F090E68AF090E68B7402F00213AC90E6B8E0FFBF02E5
:2010FB000280030213AC90E6BAE060030213AC90E6BCE0FF600FBF01028016BF80028005BD
:20111B00BF8126801890E6A0E0FF74FE5FF00213AC90E6A1E0FF74FE5FF00213AC90E6A2AF
:20113B00E0FF74FE5FF00213AC90E6BCE0C31314540324A3FEE434E6FF90E6BCE0C3131422
:20115B00540324A3F582E434E6F583E0FD5305FE8E828F83EDF00213AC90E6B8E0FFBF02A8
:20117B000280030213AC90E6BAE060030213AC90E6BCE0FF600FBF01028015BF800280053D
:20119B00BF8123801690E6A0E0FF74014FF0804390E6A1E0FF74014FF0803890E6A2E0FF76
:2011BB0074014FF0802D90E6BCE0C31314540324A3FEE434E6FF90E6BCE0C3131454032427
:2011DB00A3F582E434E6F583E0FD4305FE8E828F83EDF090E6BCE05480C423541FFF90E68D
:2011FB00BCE0FE740F5E420790E683EFF074204FF00213AC90E6BBE0FFBF01028019BF0278
:20121B00028028BF03028053BF06030212F3BF07030213070213367E427F1C8F0690E6B35A
:20123B00EEF090E6B47442F00213AC90E680E0FF30E7147E5E7F1C8F0690E6B3EEF090E69B
:20125B00B4745EF00213AC7E8E7F1C8F0690E6B3EEF090E6B4748EF00213AC90E6BAE0FF0D
:20127B00BF0102800FBF0202801EBF0302802DBF0452803C75821E7E1E7F1C8F068E167565
:20129B001705120DE90213AC7582237E237F1C8F068E16751717120DE90213AC75828A7E54
:2012BB008A7F008F068E1675170A120DE90213AC75823A7E3A7F1C8F068E16751708120D02
:2012DB00E90213AC7EBE7F1C8F0690E6B3EEF090E6B474BEF00213AC7E547F1C8F0690E651
:2012FB00B3EEF090E6B47454F00213AC90E680E0FF30E7147E8E7F1C8F0690E6B3EEF090CC
:20131B00E6B4748EF00213AC7E5E7F1C8F0690E6B3EEF090E6B4745EF0807690E6A0E0FF7B
:20133B0074014FF0806B806990E740E4F090E68AF090E68B04F08059120DC3805490E74054
:20135B00E4F090E68AF090E68B04F08044120DC3803F90E6B8E0FFBF823790E6BCE0C313E7
:20137B0014540375F002A4245DF582743A35F0F583E4F0A3F090E685E090E740F090E684B6
:20139B00E0FF90E741F090E68AE4F090E68B7402F090E6B8E0FFBF400302166FBFC00280D9
:2013BB000302169990E6BFE0FE7F0090E6BEE0FD7C00903A18ED4FF0EC4EA3F0120E5C9058
:2013DB00E6B9E0FFBF22028047BF300302152EBF330302158EBF380302148DBF3A0302144A
:2013FB00B6BF3B030214F5BF3D0302150EBF50030215A6BF58030215C7BF8402802FBF85F1
:20141B00028042BF88028055BF8C02805902166490E6B5E4F090E68AF090E68B7428F09021
:20143B00E6B3E4F090E6B4746CF00216997582841203D0903A1AE0F5167582001203E0124C
:20145B0004230216997582851203D0903A1AE0F5167582001203E01204230216991204314C
:20147B0012042302169990E6BAE0F5821204D002169990E6BBE0FE7F0090E6BAE0FD7C0032
:20149B00903A01ED4FF0EC4EA3F090E68AE4F0120895E58290E68BF0021699903A03E0FE36
:2014BB00A3E090E740EEF0903A03E0A3E090E741F0903A05E090E742F0750900750A017556
:2014DB0082A2120655AF8290E743EFF090E68AE4F090E68B7404F002169990E6BAE0903ACE
:2014FB0006F090E68AE4F0120AE7E58290E68BF0021699750900750A017582A6120655AF44
:20151B008290E740EFF090E68AE4F090E68B04F0021699759B087E087F3A8F068E9A759EF7
:20153B00417E417FE78F068E9DC0027A061202B9D00275B6F0903A12E0FF55B1FEB50714DF
:20155B0090E740E4F0903A10E0FF740F4FF5B175B6FF800990E7407401F0120B2890E747E2
:20157B00E4F090E748F090E68AF090E68B7409F002169990E7407406F090E741E4F090E69B
:20159B008AF090E68B7402F002169990E7407403F0903A0EE0FF90E741F090E742E4F09004
:2015BB00E68AF090E68B7403F002169990E678E0FF74804FF012062590E6797491F012055F
:2015DB00C790E7407401F090E679E090E741F01205F890E679E090E741F01205F890E67912
:2015FB00E090E742F01205F890E679E090E743F01205F890E679E090E744F01205F890E6B1
:20161B0079E090E741F01205F890E679E090E742F01205F890E678E0FF74204FF090E67989
:20163B00E090E743F01205F890E678E0FF74404FF090E679E090E744F012063D90E68AE483
:20165B00F090E68B7405F0803590E6A0E0FF74014FF0802A90E6BFE0700690E6BEE06016F8
:20167B00903A5C7401F090E68BE4F05391EF90E65D7401F0801A120E8990E68BE4F05391E8
:20169B00EF90E65D7401F090E6A0E0FF74804FF0D0D0D000D001D002D003D004D005D0067B
:2016BB00D007D083D082D0F0D0E0D02132C0E0C082C0835391EF90E65D7402F0D083D0822A
:2016DB00D0E032C0E0C082C0835391EF90E65D7404F0D083D082D0E032C0E0C082C08353DB
:2016FB0091EF90E65D7408F0D083D082D0E032C0E0C082C0835391EF90E65D7410F0D083F7
:20171B00D082D0E032C0E0C082C0835391EF90E65D7420F0D083D082D0E032C0E0C082C002
:20173B00835391EF90E65D7440F0D083D082D0E032C021C0E0C0F0C082C083C007C006C037
:20175B0005C004C003C002C001C000C0D075D000C2E8120E5C903A5BE0FFBF30028060BF10
:20177B003302805BBF3802802DBF3A028051BF3B028033BF3D028047BF50028042BF58026C
:20179B00803DBF84028038BF85028033BF8802802EBF8C22802990E68AE4F0120895E58284
:2017BB0090E68BF0801990E68AE4F0120AE7E58290E68BF0800990E68AE4F090E68BF053B4
:2017DB0091EF90E65F7401F0D2E8D0D0D000D001D002D003D004D005D006D007D083D08299
:2017FB00D0F0D0E0D02132C021C0E0C0F0C082C083C007C006C005C004C003C002C001C069
:20181B0000C0D075D000C2E8903A5CE06020903A5CE4F090E6BFE0FE7F0090E6BEE0FD7C8F
:20183B0000903A18ED4FF0EC4EA3F0120E89120E5C903A5BE0FFBF31028059BF3202804EFD
:20185B00BF3402804FBF3502804ABF39028020BF3C028026BF5102803ABF80028036BF82A8
:20187B00028031BF8602802CE4BF8B0104802590E68BE0F5821208C9801A903A06E0F51342
:20189B0090E68BE0F51490E7401209EB8006120C0280010090E68BE4F05391EF90E65F746E
:2018BB0002F0903A18E0F5F0A3E045F0700990E6A0E0FF74804FF0D2E8D0D0D000D001D050
:2018DB0002D003D004D005D006D007D083D082D0F0D0E0D02132C0E0C082C0835391EF9002
:2018FB00E65F7404F0D083D082D0E032C0E0C082C0835391EF90E65F7408F0D083D082D0EB
:20191B00E032C0E0C082C0835391EF90E65F7410F0D083D082D0E032C0E0C082C0835391C9
:20193B00EF90E65F7420F0D083D082D0E032C0E0C082C0835391EF90E65F7440F0D083D029
:20195B0082D0E032C0E0C082C0835391EF90E65F7480F0D083D082D0E032751100751203C0
:20197B00903A131208F6903A13E0FFBF4324903A14E0FFBF441C903A15E0FFBF3014903A16
:20199B00077401F075111075120A90008A1208F68005903A07E4F07F00EF248AF582E4349A
:2019BB0000F583E0FEBE30550FBF0A0040EB7511FB751205903A131208F67F007E00EE2467
:2019DB0013F582E4343AF583E0FDEF248AFBE43400FCEDC4540F901CC293FA8B828C83F0F4
:2019FB000FEF248AFBE43400FC740F5D901CC293FD8B828C83F00F0EBE050040C12290E6AE
:201A1B0080E0FF74084FF090E6007412F0900002120263538EF8120B09C2AFC2E8900043AF
:201A3B007402F090004414F090004574B8F090E668E0FF74084FF09001007402F07EDB7F15
:201A5B000F8F05900101EDF0900102EEF09001047402F07EC87F168F05900105EDF090017A
:201A7B0006EEF09001087402F07EDE7F168F05900109EDF090010AEEF090010C7402F07E72
:201A9B00F47F168F0590010DEDF090010EEEF09001107402F07E0A7F178F05900111EDF0DE
:201ABB00900112EEF09001147402F07E207F178F05900115EDF0900116EEF0900118740290
:201ADB00F07E367F178F05900119EDF090011AEEF09001207402F07E4C7F178F0590012150
:201AFB00EDF0900122EEF09001247402F07E027F188F05900125EDF0900126EEF0900128B6
:201B1B007402F07EF17F188F05900129EDF090012AEEF090012C7402F07E077F198F059016
:201B3B00012DEDF090012EEEF09001307402F07E1D7F198F05900131EDF0900132EEF09024
:201B5B0001347402F07E337F198F05900135EDF0900136EEF09001387402F07E497F198F8D
:201B7B0005900139EDF090013AEEF090013C7402F07E5F7F198F0590013DEDF090013EEE51
:201B9B00F05391EF90E65D747FF090E65CE0FF747F4FF090E65F74FFF090E65EF0D2E8D246
:201BBB00AF90E61174A0F00000000090E61074A0F00000000090E61274E0F00000000090EA
:201BDB00E613E4F00000000090E61474A0F00000000090E615E4F000000000121975120D71
:1F1BFB007C90E680E0FF74824FF090000A12026390E680E0FF74F75FF022121A1980FEC0
:201C1E005A54455800696E6F75747472616666696320312E302E30204A7452006465666180
:201C3E00756C740012010002FFFFFF401A2200010000010203010A060002FFFFFF4001004B
:201C5E0009022E00010104C0320904000004FFFFFF00070581020002000705010200020085
:201C7E000705820200020007050602000200000009022E00010104C0320904000004FFFF5E
:201C9E00FF00070581024000000705010240000007058202400000070506024000000000E5
:201CBE000403000030313233343536373839414243444546000000000188010101010107C8
:201CDE0002070202020202002000000000000020003600000000003F020190010101010780
:201CFE0002020702020202002000000000000020000036000000003FFF00000000000000FF
:021D1E000000C3
:06023500E478FFF6D8FD9D
:20021300794DE94400601B7A01901CD3781875923AE493F2A308B800020592D9F4DAF2751F
:0202330092FF38
:20023B007800E84400600A790075923AE4F309D8FC7818E84400600C7901903A00E4F0A344
:04025B00D8FCD9FAF8
:0D020600758121121C1AE5826003020203BB
:041C1A0075820022AD
:00000001FF
