:03020000020206F1
:03025F0002020395
:03020300021B25B6
:0400000002020032C6
:01000B0032C2
:0100130032BA
:01001B0032B2
:0100230032AA
:01002B0032A2
:01003300329A
:01003B003292
:01004300328A
:01004B003282
:01005300327A
:01005B003272
:01006300326A
:0101000032CC
:0101040032C8
:0101080032C4
:01010C0032C0
:0101100032BC
:0101140032B8
:0101180032B4
:0101200032AC
:0101240032A8
:0101280032A4
:01012C0032A0
:01013000329C
:010134003298
:010138003294
:01013C003290
:01014000328C
:010148003284
:01014C003280
:01015000327C
:010154003278
:010158003274
:01015C003270
:01016000326C
:01017000325C
:010174003258
:010178003254
:01017C003250
:01018000324C
:010184003248
:010188003244
:01018C003240
:01019000323C
:010194003238
:010198003234
:01019C003230
:0101A000322C
:0101A8003224
:0101AC003220
:0101B000321C
:0101B4003218
:0101B8003214
:2002620022AE82AF837C007D00C3EC9EED9F501B7AB07B04EA24FFF8EB34FFF988028903E0
:20028200E84970F00CBC00E10D80DE22AE82AF837C007D00C3EC9EED9F501B7A0A7B00EA0D
:2002A20024FFF8EB34FFF988028903E84970F00CBC00E10D80DE2275AF0790E67BE090E6BB
:2002C2007CF0DAF3222290E6A3E0FF74FE5FF090E6A5E0FF74FE5FF090E6047480F00000CD
:2002E200000090E61AE4F00000000090E6047406F00000000090E6497486F000000000907B
:20030200E6497486F00000000090E6497486F00000000090E6497486F00000000090E61AE0
:200322007411F00000000090E604E4F00000000090E6047480F00000000090E618E4F00038
:2003420000000090E6047402F00000000090E6187409F00000000090E604E4F00000000072
:200362002275B283C280C281C28790E60B7403F00000000090E60174E3F000000000120227
:20038200C890E670E4F00000000090E609E4F00000000090E6207402F00000000090E621F3
:2003A200E4F00000000090E60274C8F00000000090E603740AF00000000090E6307440F092
:2003C2000000000090E631E4F00000000022AF8275B4FFC287C2808FA0D280C28022AF8284
:2003E20075B400D287C2818F068F047D00AA157B00EA2CFCEB3DFD8E027B00C3EA9CEB647D
:20040200808DF063F08095F05014EE2440F582E434E7F583E5A0F0D281C2810E80CBC28734
:200422002290E68AE4F0903A19E090E68BF0227582881203D0C2817F0074022F24B8F582D0
:20044200E434E6F583E0F5A0D281C2810FBF040040E77515047582001203E075828A120310
:20046200D07515017582041203E090E745E4F07582A11203D07515027582060203E0AF8283
:20048200903A0DE0FEB50701227E00758284C007C0061203D0D006D00775B400D287C281E9
:2004A200D281C281E5A0E5A0700F8E050EBDFF028007000000000080D2758281C00712038F
:2004C200D0D0078F82120C857582800203D0AF82903A0DE0FEB5070280058F82120480752E
:2004E20082841203D07515067582001203E07582851203D07515027582061203E00204238B
:200502007F00BFFF00500D90E678E0FE13920040030F80EE90E678E0FF20E204EF20E10D3E
:2005220090E678E0FF74404FF075820122758200227F00BFFF00500D90E678E0FE139201BA
:2005420040030F80EE90E678E0FF30E20D90E678E0FF74404FF075820122758200227F007B
:2005620090E678E0FE20E204758200220FBFFF0040EE758201227F0090E678E0FE20E60424
:20058200758200220FBFFF0040EE75820122AF82C3E49508E433FE90E678E0FD74804DF0A5
:2005A200C007C006120560D006D00790E679EFF0C007C006120502E582D006D0077014E597
:2005C20009600C90E678E0FD74404DF012057875820022EE601090000AC007C00612028E19
:2005E200D006D00780B1E509600990E678E0FF74404FF075820122AE82AF837D00E50C70AA
:2006020003F582227508647509007582A2C007C006C005120590E582D005D006D0076003FF
:20062200020708AC0B90E679ECF0C007C006C005120502E582D005D006D00760030207085D
:2006420090E679E50AF0C007C006C005120502E582D005D006D007600302070890E678E034
:20066200FC74404CF0C007C006C00512057890E678E0FC74804CF012056090E67974A3F044
:20068200120502E582D005D006D007707990E679E08E828F83F0C007C006C005120533E50B
:2006A20082D005D006D007705DFCC3EC950C502A90E679E08E828F83F0A3AE82AF83C007F4
:2006C200C006C005C004120533E582D004D005D006D00770310C8C0580D090E678E0FF74F3
:2006E200204FF090E679E0C005120533E582D005701490E678E0FF74404FF090E679E0C0AC
:2007020005120578D0058D8222AE82AF837D00E50F7003F582227508647509007582A2C0A6
:2007220007C006C005120590E582D005D006D00760030207CDAC0E90E679ECF0C007C0064A
:20074200C005120502E582D005D006D00760030207CD90E679E50DF0C007C006C00512055D
:2007620002E582D005D006D0077060FCC3EC950F50498E828F83E090E679F08E828F83E0F1
:20078200FBA3AE82AF83903A04E02BF0903A02E0FAA3E0FB903A0274012AF0E43BA3F0C09D
:2007A20007C006C005C004120502E582D004D005D006D00770150C8C0580B190E678E0FFEB
:2007C20074404FF0C005120578D0058D8222903A19E0FF903A00E0F50AA3E0F50B8F0C90B1
:2007E200E740C0071205F9AE82D0077D00903A00E0FBA3E0FC903A00EF2BF0ED3CA3F08E33
:200802008222AF82903A00E0F50DA3E0F50E8F0F90E740C00712070BD0077E00903A00E090
:20082200FCA3E0FD903A00EF2CF0EE3DA3F022AE82AF837D00E5117003F58222750864754E
:2008420009007582A6C007C006C005120590E582D005D006D007600302092390E679E51099
:20086200F0C007C006C005120502E582D005D006D007600302092390E678E0FC74404CF0E7
:20088200C007C006C00512057890E678E0FC74804CF012056090E67974A7F0120502E5828A
:2008A200D005D006D007707990E679E08E828F83F0C007C006C005120533E582D005D0063C
:2008C200D007705DFCC3EC9511502A90E679E08E828F83F0A3AE82AF83C007C006C005C0AF
:2008E20004120533E582D004D005D006D00770310C8C0580D090E678E0FF74204FF090E647
:2009020079E0C005120533E582D005701490E678E0FF74404FF090E679E0C005120578D0FA
:20092200058D8222AE82AF837D00E5137003F582227508647509007582A6C007C006C0054E
:20094200120590E582D005D006D0076003020A1990E679E512F0C007C006C005120502E557
:2009620082D005D006D0076003020A19AC127B00C3EB95134003020A098E828F83E0FAA363
:20098200AE82AF8390E679EAF0C007C006C005C004C003120502E582D003D004D005D0067F
:2009A200D00770730C8C120B8B05EC20E3C2C3EB951350BC90E678E0FA74404AF0C007C0E6
:2009C20006C005C004C0031205787508647509007582A6120590E582D003D004D005D006D8
:2009E200D007703390E679ECF0C007C006C005C004C003120502E582D003D004D005D00605
:200A0200D007701302097290E678E0FF74404FF0C005120578D005903A05E512F08D82222D
:200A2200903A19E0FF903A05E0F5108F1190E740C007120831AE82D007903A05E02FF08E72
:200A4200822275B11F75B6FF903A0EE4F0903A0DF0903A0F7410F0903A10F0903A11C4F068
:200A62002290E6017480F00000000090E670E4F090E671F0D2A243B40453B2BF53B4FDC26D
:200A8200A343B40843B2AEC28543808E903A11E0F4FF53070F903A10E04FF5B175B6FF90F7
:200AA2000001120263C287C281903A10E0FF740F4FF5B153B4FB7E007F0020A210C3EE94E9
:200AC200FFEF94FF50070EBE00F00F80ED30A2047FC880027F64903A0CEFF0903A08E4F027
:200AE200A3F0A3F0A3F0903A07F022020A63020363903A0CE02416F07F00D281C2810FBFBE
:200B0200FF0040F6D287D284C284D284C284D284C284D284C28453B27153B4F775B6F090B6
:200B22003A11E0FF55B1FEB50703120AF0903A0FE0FF740F4FF5B175B6FF2285B31475B3CA
:200B4200FF903A19E0FE903A08E0FAA3E0FBA3E0FCA3E0FD8E0079007E007F00903A08E8EC
:200B62002AF0E93BA3F0EE3CA3F0EF3DA3F090E68BE06022FA759B40759AE775AF07903A8E
:200B820007E0F990E67BE0F590D28129F9C281DAF5903A07E9F08514B390E68BE0FFBF40C1
:200BA200005003020AF32290E60174C2F090E6F3E4F090E6C3F090E6C1F090E6C27420F0D9
:200BC20090E6C0744EF090E6F4E4F0759B1A7E1A7F3A8F068E9A759E607E607FE48F068EDE
:200BE2009DC0027A201202B9D00290E6C6E4F090E6C77410F090E6C8E4F090E6C9F090E6E3
:200C0200CAF090E6CBF090E6CCF090E6CDF090E60B04F00000000090E6047480F0000000AF
:200C22000090E6047406F00000000090E604E4F00000000090E61AE4F00000000090E61A8C
:200C42007410F00000000090E6E27401F00000000090E6CE7401F00000000090E6CFE4F09F
:200C62000000000090E6D0E4F00000000090E6D1E4F00000000090E6E474FFF00000000080
:200C8200C28322AF82903A0DE0FE903A0EF0903A0D74035FF08FF005F07410800225E0D54C
:140CA200F0FBFF903A0FF0903A10EFF0740FF5B14FF5B12292
:20006C0028015A5445580A0F00000001E300000000000000000000000000000000003030A3
:08008C003030303030303030EC
:200CB6002290E678E0FF74804FF012056090E6797490F0120502E58260012290E6797444F8
:200CD600F0120502E58260012290E6797414F090E678E0FF74404FF0120578E5826001226B
:200CF600900079E04401F02290E683E4F07420F003F07430F07401F07421F07411F07431C2
:200D1600F07412F07432F07406F07426F022AF82E51624E0500375161F90E6BFE070109059
:200D3600E6BEE0FEC39516500690E6BEE0F51675AF078F9B85159A7E407FE7EE04F59E7E88
:200D5600407FE70EBE00010F8F9D90E67C7403F07F00C3EF9516500E90E67BE0FE90E67C7B
:200D7600F0E4F00F80ECE5160425E0FF90E740F090E7417403F090E68AE4F090E68BEFF0A1
:200D960022903A17E0FEA3E0FFC374409EE49F50067C407D0080048E048F05903A19ECF04A
:200DB6007D00903A17EEC39CF0EF9DA3F022903A5AE0FFBF3103020E8DBF320122BF3403A4
:200DD600020E90BF3503020EA5BF3903020E60BF3C03020E84BF5103020EC1BF8002803FD0
:200DF600BF82028012BF86028046BF8B02801BBF8E02804D020EE67582821203D0C28190D1
:200E1600E6BAE0F5A0D281C281227582811203D075828B1203D01202C87582800203D09073
:200E3600E6BAE060047F8080027F818F820203D090E6BAE060047F8680027F878F8202033A
:200E5600D090E6BAE0F582020480903A04E4F0903A02F0A3F090E6BBE0FE7F0090E6BAE010
:200E7600FD7C00903A00ED4FF0EC4EA3F02290E6BAE0903A05F022020AED120AED90E6A5F0
:200E9600E0FF74FE5FF090E6F574FFF0020BA9D28390E6F574FFF00000000090E601E0FF9F
:200EB60074F05FF000000000020AF390E6BCE0FFBF0108903A1074F0F0800990E6BAE0F5D5
:200ED60082120C85903A10E0C4540F903A11F02290E6A0E0FF74014FF022C021C0E0C0F00D
:200EF600C082C083C007C006C005C004C003C002C001C000C0D075D00090E6B9E0FF903A8E
:200F16005AF090E6B57401F090E6B9E0FF24F350030212C1EFF5F0240B83F582E5F024118D
:200F360083F583E4735509C189C1C1245658686D7D820F1012101212111212121212129007
:200F5600E6B8E0FFBF8002800DBF8102801EBF8202802F0212C190E740E4F090E741F090C6
:200F7600E68AF090E68B7402F00212C190E740E4F090E741F090E68AF090E68B7402F00233
:200F960012C190E6BCE0FF600FBF01028019BF80028005BF812F801E90E6A0E0FF5307016A
:200FB60090E740EFF0803A90E6A1E0FF53070190E740EFF0802B90E6A2E0FF53070190E770
:200FD60040EFF0801C90E6BCE0C31314540324A3F582E434E6F583E0FF53070190E740EF59
:200FF600F090E741E4F090E68AF090E68B7402F00212C190E6B8E0FFBF020280030212C10B
:2010160090E6BAE060030212C190E6BCE0FF600FBF01028016BF80028005BF812680189046
:20103600E6A0E0FF74FE5FF00212C190E6A1E0FF74FE5FF00212C190E6A2E0FF74FE5FF05B
:201056000212C190E6BCE0C31314540324A3FEE434E6FF90E6BCE0C31314540324A3F582FF
:20107600E434E6F583E0FD5305FE8E828F83EDF00212C190E6B8E0FFBF020280030212C1B5
:2010960090E6BAE060030212C190E6BCE0FF600FBF01028015BF80028005BF8123801690CC
:2010B600E6A0E0FF74014FF0804390E6A1E0FF74014FF0803890E6A2E0FF74014FF0802D84
:2010D60090E6BCE0C31314540324A3FEE434E6FF90E6BCE0C31314540324A3F582E434E656
:2010F600F583E0FD4305FE8E828F83EDF090E6BCE05480C423541FFF90E6BCE0FE740F5E10
:20111600420790E683EFF074204FF00212C190E6BBE0FFBF01028019BF02028028BF030256
:201136008053BF0603021208BF070302121C02124B7E527F1B8F0690E6B3EEF090E6B474E6
:2011560052F00212C190E680E0FF30E7147E6E7F1B8F0690E6B3EEF090E6B4746EF0021230
:20117600C17E9E7F1B8F0690E6B3EEF090E6B4749EF00212C190E6BAE0FFBF0102800FBF26
:201196000202801EBF0302802DBF0452803C75822E7E2E7F1B8F068E15751605120D2402DD
:2011B60012C17582337E337F1B8F068E15751617120D240212C175828A7E8A7F008F068EB4
:2011D6001575160A120D240212C175824A7E4A7F1B8F068E15751608120D240212C17ECE65
:2011F6007F1B8F0690E6B3EEF090E6B474CEF00212C17E647F1B8F0690E6B3EEF090E6B430
:201216007464F00212C190E680E0FF30E7147E9E7F1B8F0690E6B3EEF090E6B4749EF0029B
:2012360012C17E6E7F1B8F0690E6B3EEF090E6B4746EF0807690E6A0E0FF74014FF0806B1D
:20125600806990E740E4F090E68AF090E68B04F08059120CFE805490E740E4F090E68AF0DB
:2012760090E68B04F08044120CFE803F90E6B8E0FFBF823790E6BCE0C31314540375F00285
:20129600A4245CF582743A35F0F583E4F0A3F090E685E090E740F090E684E0FF90E741F0E8
:2012B60090E68AE4F090E68B7402F090E6B8E0FFBF4003021584BFC00280030215AE90E6F4
:2012D600BFE0FE7F0090E6BEE0FD7C00903A17ED4FF0EC4EA3F0120D9790E6B9E0FFBF22D0
:2012F600028047BF3003021443BF33030214A3BF38030213A2BF3A030213CBBF3B03021476
:201316000ABF3D03021423BF50030214BBBF58030214DCBF8402802FBF85028042BF880241
:201336008055BF8C02805902157990E6B5E4F090E68AF090E68B7428F090E6B3E4F090E61D
:20135600B4746CF00215AE7582841203D0903A19E0F5157582001203E01204230215AE75A2
:2013760082851203D0903A19E0F5157582001203E01204230215AE1204311204230215AE6F
:2013960090E6BAE0F5821204D00215AE90E6BBE0FE7F0090E6BAE0FD7C00903A00ED4FF0F8
:2013B600EC4EA3F090E68AE4F01207D0E58290E68BF00215AE903A02E0FEA3E090E740EE9E
:2013D600F0903A02E0A3E090E741F0903A04E090E742F07508007509017582A2120590AFEE
:2013F6008290E743EFF090E68AE4F090E68B7404F00215AE90E6BAE0903A05F090E68AE407
:20141600F0120A22E58290E68BF00215AE7508007509017582A6120590AF8290E740EFF064
:2014360090E68AE4F090E68B04F00215AE759B077E077F3A8F068E9A759E417E417FE78FEE
:20145600068E9DC0027A061202B9D00275B6F0903A11E0FF55B1FEB5071490E740E4F090A0
:201476003A0FE0FF740F4FF5B175B6FF800990E7407401F0120A6390E747E4F090E748F027
:2014960090E68AF090E68B7409F00215AE90E7407406F090E741E4F090E68AF090E68B7401
:2014B60002F00215AE90E7407403F0903A0DE0FF90E741F090E742E4F090E68AF090E68B65
:2014D6007403F00215AE90E678E0FF74804FF012056090E6797491F012050290E74074012A
:2014F600F090E679E090E741F012053390E679E090E741F012053390E679E090E742F012DA
:20151600053390E679E090E743F012053390E679E090E744F012053390E679E090E741F07F
:2015360012053390E679E090E742F012053390E678E0FF74204FF090E679E090E743F0125E
:20155600053390E678E0FF74404FF090E679E090E744F012057890E68AE4F090E68B740526
:20157600F0803590E6A0E0FF74014FF0802A90E6BFE0700690E6BEE06016903A5B7401F0BE
:2015960090E68BE4F05391EF90E65D7401F0801A120DC490E68BE4F05391EF90E65D7401E8
:2015B600F090E6A0E0FF74804FF0D0D0D000D001D002D003D004D005D006D007D083D0821C
:2015D600D0F0D0E0D02132C0E0C082C0835391EF90E65D7402F0D083D082D0E032C0E0C04A
:2015F60082C0835391EF90E65D7404F0D083D082D0E032C0E0C082C0835391EF90E65D743C
:2016160008F0D083D082D0E032C0E0C082C0835391EF90E65D7410F0D083D082D0E032C0AF
:20163600E0C082C0835391EF90E65D7420F0D083D082D0E032C0E0C082C0835391EF90E610
:201656005D7440F0D083D082D0E032C021C0E0C0F0C082C083C007C006C005C004C003C09D
:2016760002C001C000C0D075D000C2E8120D97903A5AE0FFBF30028060BF3302805BBF3802
:2016960002802DBF3A028051BF3B028033BF3D028047BF50028042BF5802803DBF840280D7
:2016B60038BF85028033BF8802802EBF8C22802990E68AE4F01207D0E58290E68BF0801928
:2016D60090E68AE4F0120A22E58290E68BF0800990E68AE4F090E68BF05391EF90E65F7420
:2016F60001F0D2E8D0D0D000D001D002D003D004D005D006D007D083D082D0F0D0E0D021E7
:2017160032C021C0E0C0F0C082C083C007C006C005C004C003C002C001C000C0D075D000DA
:20173600C2E8903A5BE06020903A5BE4F090E6BFE0FE7F0090E6BEE0FD7C00903A17ED4F2F
:20175600F0EC4EA3F0120DC4120D97903A5AE0FFBF31028054BF32028049BF3402804ABF1A
:2017760035028045BF3902801BBF3C028021BF51028035BF80028031BF8202802CE4BF8653
:201796000104802590E68BE0F582120804801A903A05E0F51290E68BE0F51390E740120908
:2017B600268006120B3D80010090E68BE4F05391EF90E65F7402F0903A17E0F5F0A3E0453B
:2017D600F0700990E6A0E0FF74804FF0D2E8D0D0D000D001D002D003D004D005D006D0076C
:2017F600D083D082D0F0D0E0D02132C0E0C082C0835391EF90E65F7404F0D083D082D0E011
:2018160032C0E0C082C0835391EF90E65F7408F0D083D082D0E032C0E0C082C0835391EFC8
:2018360090E65F7410F0D083D082D0E032C0E0C082C0835391EF90E65F7420F0D083D082CC
:20185600D0E032C0E0C082C0835391EF90E65F7440F0D083D082D0E032C0E0C082C0835320
:2018760091EF90E65F7480F0D083D082D0E032751000751103903A12120831903A12E0FFA2
:20189600BF4324903A13E0FFBF441C903A14E0FFBF3014903A067401F075101075110A9087
:2018B600008A1208318005903A06E4F07F00EF248AF582E43400F583E0FEBE30550FBF0AF8
:2018D6000040EB7510FB751105903A121208317F007E00EE2412F582E4343AF583E0FDEF67
:2018F600248AFBE43400FCEDC4540F901BD293FA8B828C83F00FEF248AFBE43400FC740FAD
:201916005D901BD293FD8B828C83F00F0EBE050040C12290E680E0FF74084FF090E60074BE
:2019360012F0900002120263538EF8120A44C2AFC2E89000437402F090004414F09000454C
:2019560074B8F090E668E0FF74084FF09001007402F07EF07F0E8F05900101EDF090010255
:20197600EEF09001047402F07EDD7F158F05900105EDF0900106EEF09001087402F07EF39D
:201996007F158F05900109EDF090010AEEF090010C7402F07E097F168F0590010DEDF0905B
:2019B600010EEEF09001107402F07E1F7F168F05900111EDF0900112EEF09001147402F04C
:2019D6007E357F168F05900115EDF0900116EEF09001187402F07E4B7F168F05900119ED75
:2019F600F090011AEEF09001207402F07E617F168F05900121EDF0900122EEF090012474F0
:201A160002F07E177F178F05900125EDF0900126EEF09001287402F07E017F188F0590017D
:201A360029EDF090012AEEF090012C7402F07E177F188F0590012DEDF090012EEEF0900145
:201A5600307402F07E2D7F188F05900131EDF0900132EEF09001347402F07E437F188F05AD
:201A7600900135EDF0900136EEF09001387402F07E597F188F05900139EDF090013AEEF087
:201A960090013C7402F07E6F7F188F0590013DEDF090013EEEF05391EF90E65D747FF09074
:201AB600E65CE0FF747F4FF090E65F74FFF090E65EF0D2E8D2AF90E61174A0F000000000FB
:201AD60090E61074A0F00000000090E61274E0F00000000090E613E4F00000000090E614B3
:201AF60074A0F00000000090E615E4F000000000121885120CB790E680E0FF74824FF0904F
:141B1600000A12026390E680E0FF74F75FF02212192980FEB7
:201B2E005A54455800696E6F7574747261666669632055464D20312E313579006465666148
:201B4E00756C740012010002FFFFFF401A2200010000010203010A060002FFFFFF4001003C
:201B6E0009022E00010104C0320904000004FFFFFF00070581020002000705010200020076
:201B8E000705820200020007050602000200000009022E00010104C0320904000004FFFF4F
:201BAE00FF00070581024000000705010240000007058202400000070506024000000000D6
:201BCE000403000030313233343536373839414243444546000000000188010101010107B9
:201BEE0002070202020202002000000000000020003600000000003F020190010101010771
:201C0E0002020702020202002000000000000020000036000000003FFF00000000000000EF
:021C2E000000B4
:06023500E478FFF6D8FD9D
:20021300794DE94400601B7A01901BE3781775923AE493F2A308B800020592D9F4DAF27511
:0202330092FF38
:20023B007800E84400600A790075923AE4F309D8FC7817E84400600C7901903A00E4F0A345
:04025B00D8FCD9FAF8
:0D020600758121121B2AE5826003020203AC
:041B2A00758200229E
:00000001FF
